:0300000002029564
:0C029500787FE4F6D8FD75810B0202DCD6
:10000E000000FA15FA67FAB9FADEFB2AFB6BFBA4BD
:10001E00FC0CFC44FC79FC8DFCCAFD00FD34FD8219
:10002E00FDA6FDC8FDD9FE06FE22FE5608020802F8
:10003E000C020C020D020D020C040B020B020A0242
:10004E000A020902090208040C020C020B020B023E
:10005E000A020A0209040C020C020B020B020A022B
:10006E000A020904080208020C020C020D020D021B
:10007E000C040B020B020A020A020902090208040E
:10008E0008010901080109010C010D010C010D0106
:10009E000D010E010D010E010C040B010C010B01E3
:1000AE000C010A010B010A010B0109010A010901E8
:1000BE000A0108040C010D010C010D010B010C01CC
:1000CE000B010C010A010B010A010B0109040C01C1
:1000DE000D010C010D010B010C010B010C010A01AC
:1000EE000B010A010B0109040801090108010901AC
:1000FE000C010D010C010D010D010E010D010E0182
:10010E000C040B010C010B010C010A010B010A017D
:10011E000B0109010A0109010A01080408020A017A
:10012E0008010C020A010C010D020E010D010C0456
:10013E000B020D010B010A020C010A0109020A0150
:10014E00090108040C020E010C010B020D010B013A
:10015E000A020C010A0109040C020E010C010B0229
:10016E000D010B010A020C010A01090408020A0121
:10017E0008010C020A010C010D020E010D010C0406
:10018E000B020D010B010A020C010A0109020A0100
:10019E000901080401020102050205020602060217
:1001AE000504040204020302030202020202010415
:1001BE000502050204020402030203020204050200
:1001CE0005020402040203020302020401020102F8
:1001DE0005020502060206020504040204020302D9
:1001EE0003020202020201040F0110010F011001AD
:1001FE001301140113011401140115011401150149
:10020E001304120113011201130111011201110144
:10021E00120110011101100111010F04130114013B
:10022E001301140112011301120113011101120124
:10023E001101120110041301140113011401120112
:10024E001301120113011101120111011201100407
:10025E000F0110010F0110011301140113011401FC
:10026E0014011501140115011304120113011201D9
:10027E0013011101120111011201100111011001DE
:07028E0011010F040004FF41
:0400030002080000EF
:1003A100D3EF9400EE940040147D6E7C00ED1D703F
:0D03B100011CED4C70F7EF1F70E61E80E39D
:0103BE00221C
:0D03DE005389F0438901D2AFD2A9D2A322E6
:040321008E0A8F0BA6
:10032500E4FBFAE50B2BF582E50A3AF583E493FF46
:10033500F46068EF700AF508F509C28CD2A3802A2B
:10034500E50B2BF582E50A3AF583E49325E0240EC7
:10035500F582E43400F583E493F508740193F50917
:10036500E508F58CE509F58AD28CEB2401FFE43A22
:10037500FEE50B2FF582E50A3EF583E49375F0FA69
:10038500A4FFAEF01203A1C28CD2A37F0F7E001290
:0B03950003A174022BFBE43AFA8088FD
:0103A000223A
:03000B000203CF1E
:0F03CF00C0E0E508F58CE509F58AB2A3D0E0326D
:1003BF001203DE7E007F3A120321C28CD2A380FE8D
:1002A1000203BFE493A3F8E493A34003F68001F2B1
:1002B10008DFF48029E493A3F85407240CC8C3335E
:1002C100C4540F4420C8834004F456800146F6DF2D
:1002D100E4800B0102040810204080900003E47EBA
:1002E100019360BCA3FF543F30E509541FFEE49322
:1002F100A360010ECF54C025E060A840B8E493A3E9
:10030100FAE493A3F8E493A3C8C582C8CAC583CA13
:10031100F0A3C8C582C8CAC583CADFE9DEE780BECB
:0100070000F8
:00000001FF
